{
    "txid": "4549978bc1ee7f7033dccd3299792b19f4f55d24b42e9850aa01249621f6471c",
    "hash": "4549978bc1ee7f7033dccd3299792b19f4f55d24b42e9850aa01249621f6471c",
    "version": 1,
    "locktime": 0,
    "vin": [
        {
            "txid": "69e9c12d30a6cd598a31ddfcaabeb9d9f0baf8938bf0ba6610beb04f589cc5ef",
            "vout": 0,
            "scriptSig": {
                "asm": "",
                "hex": ""
            },
            "sequence": 4294967295
        }
    ],
    "vout": [
        {
            "value": 0.002,
            "n": 0,
            "scriptPubKey": {
                "asm": "OP_DUP OP_HASH160 199c01565658f17f1aec526fe3ff0bcf3c06298e OP_EQUALVERIFY OP_CHECKSIG",
                "hex": "76a914199c01565658f17f1aec526fe3ff0bcf3c06298e88ac",
                "reqSigs": 1,
                "type": "pubkeyhash",
                "addresses": [
                    "LMZN3SaGdyteZuZQW9pCWuTEjn3sjNztCD"
                ]
            }
        }, 
        {
            "value": 4.00,
            "n": 1,
            "scriptPubKey": {
                "asm": "OP_RETURN 54686973204f505f52455455524e207472616e73616374696f6e206f7574707574207761732063726561746564206279206d6f646966696564206372656174657261777472616e73616374696f6e2e",
                "hex": "6a4c4f54686973204f505f52455455524e207472616e73616374696f6e206f7574707574207761732063726561746564206279206d6f646966696564206372656174657261777472616e73616374696f6e2e",
                "type": "nulldata"
            }
        }
    ],
    "hex": "0100000001efc59c584fb0be1066baf08b93f8baf0d9b9beaafcdd318a59cda6302dc1e9690000000000ffffffff02400d0300000000001976a914199c01565658f17f1aec526fe3ff0bcf3c06298e88ac0084d71700000000526a4c4f54686973204f505f52455455524e207472616e73616374696f6e206f7574707574207761732063726561746564206279206d6f646966696564206372656174657261777472616e73616374696f6e2e00000000"
}
