{
    "txid": "4fd0e6164541f94f7b946dbd091199bf48eec52fdf7f5729d098d34d1c89ceba",
    "hash": "4fd0e6164541f94f7b946dbd091199bf48eec52fdf7f5729d098d34d1c89ceba",
    "version": 1,
    "locktime": 0,
    "vin": [
        {
            "txid": "6c2789243608b46f750f49ff24f6f79a78c3010f7e56951e045e5b7ea5d07bf7",
            "vout": 0,
            "scriptSig": {
                "asm": "",
                "hex": ""
            },
            "sequence": 4294967295
        }
    ],
    "vout": [
        {
            "value": 0.001,
            "n": 0,
            "scriptPubKey": {
                "asm": "OP_DUP OP_HASH160 382d03752bf6ae294a73b2bb0def022e3cc255ce OP_EQUALVERIFY OP_CHECKSIG",
                "hex": "76a914382d03752bf6ae294a73b2bb0def022e3cc255ce88ac",
                "reqSigs": 1,
                "type": "pubkeyhash",
                "addresses": [
                    "LQLz2YnNyhpFYbsVNFKZh1bNggmqz3EsAc"
                ]
            }
        }
    ],
    "hex": "0100000001f77bd0a57e5b5e041e95567e0f01c3789af7f624ff490f756fb408362489276c0000000000ffffffff01a0860100000000001976a914382d03752bf6ae294a73b2bb0def022e3cc255ce88ac00000000"
}
