{
    "txid": "20f8a54ca028be909c129000cfcc9a59e6adf5378edcce48278f2638a30f713c",
    "hash": "20f8a54ca028be909c129000cfcc9a59e6adf5378edcce48278f2638a30f713c",
    "version": 1,
    "locktime": 0,
    "vin": [
        {
            "txid": "5897de6bd6027a475eadd57019d4e6872c396d0716c4875a5f1a6fcfdf385c1f",
            "vout": 0,
            "scriptSig": {
                "asm": "",
                "hex": ""
            },
            "sequence": 4294967293
        }
    ],
    "vout": [
        {
            "value": 0.002,
            "n": 0,
            "scriptPubKey": {
                "asm": "OP_DUP OP_HASH160 199c01565658f17f1aec526fe3ff0bcf3c06298e OP_EQUALVERIFY OP_CHECKSIG",
                "hex": "76a914199c01565658f17f1aec526fe3ff0bcf3c06298e88ac",
                "reqSigs": 1,
                "type": "pubkeyhash",
                "addresses": [
                    "LMZN3SaGdyteZuZQW9pCWuTEjn3sjNztCD"
                ]
            }
        }
    ],
    "hex": "01000000011f5c38dfcf6f1a5f5a87c416076d392c87e6d41970d5ad5e477a02d66bde97580000000000fdffffff01400d0300000000001976a914199c01565658f17f1aec526fe3ff0bcf3c06298e88ac00000000"
}
